5761010999888770000AA993210000101  G   789000000                   0101                             
5761010999888770000BB1253870000000N00000  721PR      Y                                              
5761010999888770000GG 001SAULT STE MARIE CITY        LO B  Y                                        
5761010999888770000HH199 FOSTER DR                                                                  
5761010999888770000JJSAULT STE. MARIE ON  P6A 5X6                                                   
5761010999888770000KK0012300000 TESTER RD                                                           
5761010999888770000LL1TEST LGL DESC                                                                 
5761010999888770000MM1                      REG                                                     
5761010999888770000MM2        SF 1253.87FR       D                                                  
5761010999888770000PA10013965000                       Y0000000000B Y 300139650000000000000         
5761010999888770000PI001618505900139650000013965000                                                 